:100000000A128A11EC2FFF1B0D2883137F18831708
:100010000008840A0319FF0A080000308A00040857
:10002000840A82070034443461346E3467342034E7
:100030006B3468346F346934203464346F346E3414
:1000400067342E342E342E340034453472347234F6
:100050006F3472342034523465346134643469341A
:100060006E346734203444344834543400346434B7
:100070006F34203461346D343A34203425346434A0
:100080002534253400344434483454343134313444
:1000900020342B3420344C34433444340034503432
:1000A00075346D3470343A342034493464346C34EB
:1000B00065340034503475346D3470343A3420343F
:1000C0004F34463446340034503475346D34703413
:0A00D0003A3420344F344E3400342B
:1003E000080083160313061408008316031306106F
:1003F00008008316031311141118FF29002AFC2981
:1004000008008316031311151119072A082A042A54
:10041000080064008001840A0406031900340406FD
:100420000A2A2830831203139400831603139101C0
:10043000313093009401871507160800F00070080A
:10044000831203139300831603131418282A292AEE
:10045000232A14192C2A2D2A292A080001300A12CD
:100460008A11D7230A128A110D30F700FB30F600EB
:10047000F60B382AF70B382A3D2A0800F71B412AC9
:10048000422A432A4E2A7609F8007709F900F80A29
:100490000319F90A7808F6007908F7000800F70050
:1004A0005C2A76087F3EF800642A7608BF3EF80092
:1004B000642A8030F800642A7708013A0319512A27
:1004C000033A0319552A592A78080A128A11D723A0
:1004D0000A128A110800F1014230F000F00B6E2A76
:1004E0000000831203130618762A772A882A85309B
:1004F000F000F00B792A83120313061C802A812A4C
:10050000832A0130F1004230F000F00B852A000010
:10051000710808000A128A11F5210A128A11831241
:10052000031306108230F100DD30F000F00B962A44
:10053000F10B962A9B2A8312031306143130F00024
:10054000F00BA02AA32A0A128A11F1210A128A1199
:100550000800333083120313B6003108B7000030AF
:10056000B800B901BA01C001C1013730AD00003097
:10057000AE003208AF003630B0000A128A11CC2229
:100580000A128A118312031339083107B50035089E
:100590008400831380010800831203132F08FD00D9
:1005A000E02A831203132D08A0002E08A1007D303D
:1005B000A2003008A3000A128A11E6260A128A1144
:1005C0007D0884000A128A110D200A128A11003A4D
:1005D000031DEB2AEC2AD12A83120313AD01AE01CD
:1005E0000800062B7708FF00760884000A128A119B
:1005F00003200A128A110A128A112F240A128A1160
:100600000130F6070318F70A0030F707770883125E
:100610000313FF00760884000A128A1103200A12CD
:100620008A11003A031D152B162BF22A0800F1013E
:10063000F20183120313061C1E2B1F2B192B3130C2
:10064000F000F00B212B242B83120313061C292B03
:100650002A2B372B0130F0007208073C013E322B69
:100660000310F00DFF3E031D302B7008F104061837
:100670003A2B3B2B372B0130F20708307202031C58
:10068000422B432B192B710808000230F80045302B
:10069000F700A930F600F60B4B2BF70B4B2BF80BA2
:1006A0004B2B522B33300A128A11D7230A128A118C
:1006B00032300A128A11D7230A128A1128300A12FC
:1006C0008A11D7230A128A110C300A128A11D723F1
:1006D0000A128A1106300A128A11D7230A128A11C5
:1006E00001300A128A11D7230A128A110D30F7003D
:1006F000FB30F600F60B7A2BF70B7A2B7F2B0800DA
:10070000F501F31F842B852B8C2BF209F309F20AD8
:100710000319F30A0130F500F11F8F2B902B952B55
:10072000F009F109F00A0319F10A700871040319BC
:100730009A2B9B2BC82B0130F400A72B0130031000
:10074000F00DF10DFF3E031D9F2B0130F407F11F4B
:10075000AA2BAB2B9E2B71087302031DB12B7008C3
:100760007202031CB42BB52BBB2B7008F20271086C
:10077000031CF303F30201300310F10CF00CFF3EF5
:10078000031DBC2B0130F402031DC72BC82BAB2B60
:1007900075080319CC2BCD2BD22BF209F309F20AE1
:1007A0000319F30A7308F1007208F0000800F3005F
:1007B0007308F400F030F4057308F10003300310FF
:1007C000F10DFF3E031DDF2B0310710DF500F0301E
:1007D000F5050A128A11F9210A128A114E300A12FD
:1007E0008A111E220A128A1174080C380A128A1100
:1007F0001E220A128A11740808380A128A111E224F
:100800000A128A110A128A1101220A128A110A1284
:100810008A11F9210A128A114E300A128A111E22F7
:100820000A128A1175080C380A128A111E220A123D
:100830008A11750808380A128A111E220A128A11B2
:100840000A128A1101220A128A110D30F200FB30BD
:10085000F100F10B292CF20B292C2E2C0800F300AF
:100860007308F400F030F4057308F100033003104E
:10087000F10DFF3E031D372C0310710DF500F03014
:10088000F5050A128A11F9210A128A114E300A124C
:100890008A111E220A128A1174080D380A128A114E
:1008A0001E220A128A11740809380A128A111E229D
:1008B0000A128A110A128A1101220A128A110A12D4
:1008C0008A11F9210A128A114E300A128A111E2247
:1008D0000A128A1175080D380A128A111E220A128C
:1008E0008A11750809380A128A111E220A128A1101
:1008F0000A128A1101220A128A110D30F200FB300D
:10090000F100F10B812CF20B812C862C08000A12CD
:100910008A118A220A128A110A128A116B220A1279
:100920008A11003A0319952C962CE52C0A128A118B
:1009300017230A128A1183120313A3000A128A11C1
:1009400017230A128A1183120313A0000A128A11B4
:1009500017230A128A1183120313A4000A128A11A0
:1009600017230A128A1183120313A1000A128A1193
:1009700017230A128A1183120313A20023082007E7
:10098000F500F601F60D24087507F700003003188E
:1009900001307607F80021087707F90000300318C6
:1009A00001307807FA00220879067A04031DD92C51
:1009B000DA2CE52C74088400230883138000730864
:1009C0008400240880000130E62C00300800F50186
:1009D000F11FEB2CEC2CF32CF009F109F00A0319B0
:1009E000F10A0130F500F31FF62CF72CFE2CF2096A
:1009F000F309F20A0319F30A0130F506F601F701CB
:100A0000700871040319052D062D3B2D0130F400EB
:100A1000122D01300310F00DF10DFF3E031D0A2DC4
:100A20000130F407F11F152D162D092D013003108B
:100A3000F60DF70DFF3E031D172D71087302031D00
:100A4000232D70087202031C262D272D2E2D7008D1
:100A5000F2027108031CF303F30276140130031051
:100A6000F10CF00CFF3E031D2F2D0130F402031D8D
:100A70003A2D3B2D162D750803193F2D402D452D80
:100A8000F609F709F60A0319F70A7708F10076085C
:100A9000F00008007208730403194F2D502D562DD5
:100AA00072087304031D552D562D5D2D70080A1212
:100AB0008A11F0210A128A11E32D7208093EF4000E
:100AC00073080318013E003EF50074088400831784
:100AD000751C83130008F600840A0008F7007608E6
:100AE00077040319742D752DA72D7208093EF400A3
:100AF00073080318013E003EF50074088400831754
:100B0000751C83130008F600840A0008F7007208B9
:100B1000023EF80073080318013E003EF900780811
:100B200084008317791C83130008FA00840A0008E4
:100B3000FB007B08803AFC007708803A7C02031DAA
:100B4000A32D76087A020318A62DA72DE32D72088F
:100B500084008317731C83130008F400840A0008C0
:100B6000F5007208023EF60073080318013E003ECD
:100B7000F700760884008317771C83130008740736
:100B8000F9007508F8000318F80A801FC82DF8034B
:100B90007808FA007908840083177A1C8313700898
:100BA00080007208023EF40073080318013E003E04
:100BB000F500740884008317751C831301308007C7
:100BC000840A0318800A0800831603138715071682
:100BD0000A128A1111220A128A110A128A11452355
:100BE0000A128A110A128A112E220A128A118316F7
:100BF00003130710831203130710831603138610C1
:100C00008312031386108B01F601F60A01300A12D3
:100C10008A114F220A128A113130F6008030F70013
:100C20000A128A11F1220A128A111A30831203134E
:100C3000C4005E30C3006D30C200C20B1D2EC30B5A
:100C40001D2EC40B1D2E242EF601F60A02300A12A8
:100C50008A114F220A128A110130F6008030F70003
:100C60000A128A11F1220A128A111A30831203130E
:100C7000C4005E30C3006D30C200C20B3D2EC30BFA
:100C80003D2EC40B3D2E442E0A128A112E220A122A
:100C90008A115730F3005630F4000A128A11872463
:100CA0000A128A11003A0319562E572EC22EF60147
:100CB000F60A01300A128A114F220A128A114530AF
:100CC00083120313B1002530B2005708C200C301DC
:100CD0004208B3004308B4000A128A11A9220A127A
:100CE0008A114530F6000030F7000A128A11F1220D
:100CF0000A128A111E308312031357020318812E21
:100D0000822E962E07148614F601F60A02300A1275
:100D10008A114F220A128A115230F6008030F700F1
:100D20000A128A11F1220A128A11D32E4730570271
:100D3000031C9B2E9C2EB02E07108610F601F60A7F
:100D400002300A128A114F220A128A114830F60024
:100D50008030F7000A128A11F1220A128A11D32E6A
:100D6000F601F60A02300A128A114F220A128A117B
:100D70003D30F6008030F7000A128A11F1220A1283
:100D80008A11D32EF601F60A01300A128A114F2277
:100D90000A128A111330F6008030F7000A128A1105
:100DA000F1220A128A111A3083120313C4005E3032
:100DB000C3006D30C200C20BDB2EC30BDB2EC40B95
:100DC000DB2EE22E492E0A128A1100288312031309
:100DD00022088400000884000A128A110D200A12D9
:100DE0008A11253A031DF52EF62ED22F22088400F3
:100DF00001308007D801D9010030DC00FF30DA0073
:100E0000FF30DB00220884000008A70027088400C8
:100E10000A128A110D200A128A11643A0319112F3D
:100E2000122F1E2F270884000A128A110D200A1281
:100E30008A11693A031D1D2F1E2FAB2F2308840032
:100E400083130008FF00023080077F088400000839
:100E5000A800840A0008A900220884002708013E8F
:100E600080002030AC00A91B362F382F0130392FDD
:100E70000030A6000130AC022C08A03E84000A30ED
:100E8000F0000030F1002908F3002808F2000A12EF
:100E90008A1180230A128A117108F7007008F6007F
:100EA0000A128A113E220A128A117608303E8313F2
:100EB00080000A30F0000030F1008312031329088B
:100EC000F3002808F2000A128A11E7240A128A1194
:100ED000710883120313A9007008A80028082904C8
:100EE0000319732F742F792F2C08031D782F792F56
:100EF0003A2F2C0803197D2F7E2FA42F26080319C3
:100F0000822F832FA42F0130AC022C08A03E840036
:100F10002D3083138000A42F2C08A03E840083135F
:100F20000008A400A5012408F0002508F10020080D
:100F3000F2002108F3000A128A114A250A128A11C6
:100F4000013083120313AC0720302C06031DA92F98
:100F5000AA2F8C2FEB2F22088400000884000A128D
:100F60008A110D200A128A11253A031DB82FB92FB4
:100F7000CB2F22088400013080072530F00000309C
:100F8000F1002008F2002108F3000A128A114A2514
:100F90000A128A11EB2F83120313220884000130F6
:100FA0008007EB2F22088400000884000A128A11AF
:100FB0000D200A128A11A400A5012408F0002508BA
:100FC000F1002008F2002108F3000A128A114A25D4
:100FD0000A128A11CB2F080083120313D801D901FA
:100FE000DA01DB01DC018313A0308400C0300A1277
:100FF0008A1109220A128A1183010A128A11E42D28
:02400E007A3FF7
:00000001FF
